:100000000C9462000C948A000C948A000C948A0070
:100010000C948A000C948A000C948A000C948A0038
:100020000C948A000C948A000C948A000C948A0028
:100030000C948A000C948A000C948A000C948A0018
:100040000C94E4030C948A000C94B2030C948C037B
:100050000C948A000C948A000C948A000C948A00F8
:100060000C948A000C948A000000000024002700F1
:100070002A0000000000250028002B0000000000DE
:1000800023002600290004040404040404040202DA
:100090000202020203030303030301020408102007
:1000A0004080010204081020010204081020000012
:1000B0000008000201000003040700000000000027
:1000C00000002E0411241FBECFEFD8E0DEBFCDBF4D
:1000D00011E0A0E0B1E0E2E1FFE002C005900D9286
:1000E000AA36B107D9F722E0AAE6B1E001C01D9215
:1000F000A636B207E1F710E0C2E6D0E004C02197CF
:10010000FE010E944407C136D107C9F70E946D0461
:100110000C9487070C940000E1E8F1E0A089B18914
:1001200082E08C93A485B5851C92A685B78580E175
:100130008C93108EA489B58986E08C93A289B389AB
:100140008C9180618C93A289B3898C9188608C9307
:10015000A289B3898C9180688C930288F389E02D01
:1001600080818F7D80830895CF92DF92EF92FF92FE
:100170000F931F93CF93DF936C017A018B01C0E043
:10018000D0E0CE15DF0589F0D8016D918D01D60143
:10019000ED91FC910190F081E02DC6010995892B2C
:1001A00011F47E0102C02196ECCFC701DF91CF91FF
:1001B0001F910F91FF90EF90DF90CF900895FC0179
:1001C000918D828D981761F0828DDF01A80FB11D8E
:1001D0005D968C91928D9F5F9F73928F90E00895B2
:1001E0008FEF9FEF0895FC01918D828D981731F06C
:1001F000828DE80FF11D858D90E008958FEF9FEFC0
:100200000895FC01918D228D892F90E0805C9F4F95
:10021000821B91098F739927089581E891E00E94CC
:10022000010121E0892B09F420E0822F0895FC01CF
:10023000848DDF01A80FB11DA35ABF4F2C91848D6F
:1002400090E001968F739927848FA689B7892C93A4
:10025000A089B1898C9180648C93938D848D98133F
:1002600006C00288F389E02D80818F7D8083089508
:10027000EF92FF920F931F93CF93DF93EC0181E0F6
:10028000888F9B8D8C8D981305C0E889F9898081B2
:1002900085FD24C0F62E0B8D10E00F5F1F4F0F73EE
:1002A0001127E02E8C8DE8120CC00FB607FCFACF98
:1002B000E889F989808185FFF5CFCE010E94170179
:1002C000F1CF8B8DFE01E80FF11DE35AFF4FF08255
:1002D0000B8FEA89FB898081806207C0EE89FF89E4
:1002E0006083E889F98980818064808381E090E07F
:1002F000DF91CF911F910F91FF90EF900895CF93D1
:10030000DF93EC01888D8823C9F0EA89FB8980811D
:1003100085FD05C0A889B9898C9186FD0FC00FB6EF
:1003200007FCF5CF808185FFF2CFA889B9898C9130
:1003300085FFEDCFCE010E941701E7CFDF91CF916E
:10034000089580E090E0892B29F00E940D01811131
:100350000C9400000895833081F028F4813099F0E6
:100360008230A1F008958730A9F08830B9F0843048
:10037000D1F4809180008F7D03C0809180008F77C1
:1003800080938000089584B58F7702C084B58F7DF7
:1003900084BD08958091B0008F7703C08091B00034
:1003A0008F7D8093B0000895CF93DF93282F30E0A6
:1003B000F901E255FF4F8491F901E656FF4FD491C0
:1003C000F901EA57FF4FC491CC2391F081110E94AB
:1003D000AB01EC2FF0E0EE0FFF1FE458FF4FA591AB
:1003E000B491EC91ED2381E090E021F480E002C033
:1003F00080E090E0DF91CF9108951F93CF93DF933A
:10040000282F30E0F901E255FF4F8491F901E656BB
:10041000FF4FD491F901EA57FF4FC491CC23C9F0A3
:10042000162F81110E94AB01EC2FF0E0EE0FFF1FA1
:10043000EE58FF4FA591B4918FB7F894111105C0F4
:100440009C91ED2FE095E92302C0EC91ED2BEC930C
:100450008FBFDF91CF911F910895CF93DF9390E0ED
:10046000FC01E656FF4F2491FC01EA57FF4F8491AF
:10047000882361F190E0880F991FFC01E859FF4F34
:10048000C591D491FC01EE58FF4FA591B491611133
:1004900009C09FB7F8948881209582238883EC91C6
:1004A0002E230BC0623061F49FB7F8943881822FFD
:1004B000809583238883EC912E2B2C939FBF06C0BD
:1004C0008FB7F894E8812E2B28838FBFDF91CF91CF
:1004D00008953FB7F89480916F0190917001A091B9
:1004E0007101B091720126B5A89B05C02F3F19F08C
:1004F0000196A11DB11D3FBFBA2FA92F982F8827A4
:10050000820F911DA11DB11DBC01CD0142E0660FFE
:10051000771F881F991F4A95D1F708958F929F9250
:10052000AF92BF92CF92DF92EF92FF926B017C016C
:100530000E9469024B015C01C114D104E104F10481
:10054000F1F00E946902DC01CB0188199909AA091E
:10055000BB09883E9340A105B10570F321E0C21AA2
:10056000D108E108F10888EE880E83E0981EA11CEE
:10057000B11CC114D104E104F10419F7DDCFFF90DF
:10058000EF90DF90CF90BF90AF909F908F900895A5
:100590002FB7F89460916B0170916C0180916D019F
:1005A00090916E012FBF08950E944A076115710551
:1005B00079F0FB0101900020E9F73197AF01461B6C
:1005C000570BDC01ED91FC910280F381E02D099441
:1005D00080E090E008954F925F926F927F92EF9249
:1005E000FF920F931F93CF93DF93CDB7DEB7A19701
:1005F0000FB6F894DEBF0FBECDBF7C01FA01CB0170
:1006000019A2223008F42AE08E010F5D1F4F422EFE
:10061000512C612C712CBF01A30192010E9465072E
:10062000F901CA01015011096A3014F4605D01C07A
:10063000695CD8016C93232B242B252B61F7B8011F
:10064000C7010E94D602A1960FB6F894DEBF0FBE76
:10065000CDBFDF91CF911F910F91FF90EF907F90D1
:100660006F905F904F900895CF92DF92EF92FF923C
:10067000CF93DF936B017C01E0918101F0918201C6
:100680000190F081E02D6DE281E891E00995EC01A7
:1006900044275527BA014C195D096E097F092AE0E4
:1006A00081E891E00E94EB028C0F9D1FDF91CF91BA
:1006B000FF90EF90DF90CF900895CF93DF93AC0140
:1006C000990F660B770B77FF05C0CB01BA010E942B
:1006D000340305C02AE081E891E00E94EB02EC01BE
:1006E00065E371E081E891E00E94D6028C0F9D1FC6
:1006F000DF91CF910895AC01990F660B770B77FFCF
:1007000004C0CB01BA010C9434032AE081E891E0E3
:100710000C94EB020C94D6021F920F920FB60F921C
:1007200011242F933F934F935F936F937F938F93F6
:100730009F93AF93BF93EF93FF9381E891E00E9463
:100740001701FF91EF91BF91AF919F918F917F9191
:100750006F915F914F913F912F910F900FBE0F902E
:100760001F9018951F920F920FB60F9211242F937E
:100770008F939F93EF93FF93E0919101F0919201FA
:100780008081E0919701F091980182FD12C09081E3
:1007900080919A018F5F8F7320919B01821751F096
:1007A000E0919A01F0E0EF57FE4F958F80939A0108
:1007B00001C08081FF91EF919F918F912F910F90B8
:1007C0000FBE0F901F9018951F920F920FB60F92A9
:1007D00011242F933F938F939F93AF93BF93809157
:1007E0006B0190916C01A0916D01B0916E013091FF
:1007F0006A0123E0230F2D3720F40196A11DB11DBE
:1008000005C026E8230F0296A11DB11D20936A01A1
:1008100080936B0190936C01A0936D01B0936E0176
:1008200080916F0190917001A0917101B09172015E
:100830000196A11DB11D80936F0190937001A0934B
:100840007101B0937201BF91AF919F918F913F91D0
:100850002F910F900FBE0F901F901895E1E8F1E0D7
:100860001382128288EE93E0A0E0B0E08483958347
:10087000A683B7838AE191E09183808385EC90E041
:100880009587848784EC90E09787868780EC90E05A
:10089000918B808B81EC90E0938B828B82EC90E04B
:1008A000958B848B86EC90E0978B868B118E128EC5
:1008B000138E148EEEE1F2E01682178210861186F6
:1008C000128613861486158616861786108A118A54
:1008D000128A138A148A158A0895CF93DF931F9280
:1008E000CDB7DEB7789484B5826084BD84B581606D
:1008F00084BD85B5826085BD85B5816085BD8091EB
:100900006E00816080936E00109281008091810062
:10091000826080938100809181008160809381005A
:10092000809180008160809380008091B10084601C
:100930008093B1008091B00081608093B00080917D
:100940007A00846080937A0080917A00826080933C
:100950007A0080917A00816080937A0080917A0099
:10096000806880937A001092C10010926202109207
:10097000630210926402109265021092200210929B
:100980002102109222021092230268EB7BE080E0A9
:1009900090E00E948E0281E891E090936102809342
:1009A00060020E948C000E94C80260932002709333
:1009B0002102809322029093230266E271E08091EB
:1009C0006002909161020E948A036AE070E080E018
:1009D00090E00E948E0281E0809334020E948C009D
:1009E00061E083E00E942D0260E083E00E94FD014F
:1009F00061E083E00E942D0261E083E00E942D020D
:100A000060E083E00E94FD011AE060E0812F0E9417
:100A10002D0261E0812F0E94FD011F5F1E30A9F7AA
:100A200068E371E081E891E00E94D60265E371E03D
:100A300081E891E00E94D60280E090E00E944F079A
:100A400090E0909378018093770144EF842E99246D
:100A50009394A12CB12C0AE010E051EBE52E50E06C
:100A6000F52E0E94C802672B682B692B41F40E9467
:100A7000C802623071058105910508F40BC10E941E
:100A8000C80260937D0170937E0180937F019093F3
:100A900080014090790150907A0160907B017090C4
:100AA0007C01641575058605970540F4609379010E
:100AB00070937A0180937B0190937C01409079013F
:100AC00050907A0160907B0170907C019B01AC0199
:100AD000241935094609570929013A013AEF431605
:100AE00051046104710408F4D5C0609379017093D6
:100AF0007A0180937B0190937C0180922C029092EA
:100B00002D02A0922E02B0922F021092300210926B
:100B1000310210923202109233028091240290919D
:100B20002502A0912602B09127028093280290937B
:100B30002902A0932A02B0932B020E94C80260935C
:100B400024027093250280932602909327020E942C
:100B5000C802609320027093210280932202909336
:100B600023020E94C8022B013C0164E471E08091E1
:100B70006002909161020E948A032AE041E050E005
:100B800060E070E080916002909161020E94EB024F
:100B90006BE471E080916002909161020E948A038F
:100BA0002AE0B301A20180916002909161020E944B
:100BB000EB026DE471E080916002909161020E940D
:100BC0008A038091240290912502A0912602B0917F
:100BD0002702B301A201481B590B6A0B7B0B2AE0C9
:100BE00080916002909161020E94EB026DE471E0DD
:100BF00080916002909161020E948A0340912402D8
:100C0000509125026091260270912702809128025E
:100C100090912902A0912A02B0912B02481B590BF6
:100C20006A0B7B0B2AE080916002909161020E9426
:100C3000EB026FE471E080916002909161020E948A
:100C40008A030E94C802AB01BC012AE080916002C5
:100C5000909161020E94EB026090600270906102CC
:100C600061E571E0C3010E94D60265E371E0C30152
:100C70000E94D60265E070E080E090E00E948E0263
:100C80000E94C8026093240270932502809326027A
:100C9000909327023AE0C32ED12C5C2C8C2D0E941D
:100CA000D401892BB1F424E0622E712C852D0E9491
:100CB000D401892B19F0C12CD12C13C06AE070E04B
:100CC00080E090E00E948E0241E0641A710871F7A2
:100CD00008C05FEFC51AD50A8EE0C816D104E9F640
:100CE000EACFD0927601C0927501C114D10499F077
:100CF0008091730190917401C816D90651F068E58E
:100D000071E081E891E00E948A03C6010E947B03A2
:100D100002C0C12CD12C80917501909176019093E5
:100D20007401809373018091770190917801EAE0DA
:100D3000CE16D10451F48A30910514F401960DC0F9
:100D4000109278011092770111C0FBE0CF16D10408
:100D5000C9F51816190634F4019790937801809319
:100D6000770104C010937801009377016DE571E07D
:100D700081E891E00E948A03809177019091780147
:100D80000E947B0364E671E081E891E00E948A039F
:100D9000E0917701F0917801EE0FFF1FE050FF4FD7
:100DA000808191810E945D036091770180E090E0F5
:100DB00069830E944F076981681721F080E090E005
:100DC0000E945707E0917701F0917801EE0FFF1F25
:100DD000E050FF4F6080718061E083E00E942D024F
:100DE0006114710411F460E005C02FEF6216710404
:100DF00029F461E083E00E94FD0143C0F701849182
:100E00008330F9F048F48130B9F08230A1F584B52F
:100E1000806284BD68BC35C08730E9F0883019F144
:100E2000843049F5809180008062809380007092C8
:100E30008B0060928A0025C084B5806884BD67BC41
:100E400020C080918000806880938000709289002B
:100E50006092880016C08091B00080688093B000D6
:100E60006092B3000EC08091B00080628093B000A9
:100E70006092B40006C0F0E86F1671040CF0B9CFB0
:100E8000B2CF0E94A101EDCDEE0FFF1F0590F491AE
:100E9000E02D099481E090E0F8940C948707F9998B
:100EA000FECF92BD81BDF89A992780B50895262F6F
:100EB000F999FECF1FBA92BD81BD20BD0FB6F8943F
:100EC000FA9AF99A0FBE01960895A1E21A2EAA1B6A
:100ED000BB1BFD010DC0AA1FBB1FEE1FFF1FA217EA
:100EE000B307E407F50720F0A21BB30BE40BF50BE7
:100EF000661F771F881F991F1A9469F76095709570
:100F0000809590959B01AC01BD01CF010895F894A7
:020F1000FFCF11
:100F1200010002000300050009000F001B00300061
:100F220054009200FF00000000003801B4000101EB
:100F3200DF00F3007F01564D4450565F317C315F34
:100F4200564D4450560D0A00496E697469616C69C8
:100F52007A656400564D4450455F003A323A007C4F
:100F6200005F564D445045004B65793A002020768B
:0A0F7200616C3A002050574D3A0020
:107E0000112484B714BE81FFF0D085E080938100F7
:107E100082E08093C00088E18093C10086E0809377
:107E2000C20080E18093C4008EE0C9D0259A86E02C
:107E300020E33CEF91E0309385002093840096BBD3
:107E4000B09BFECF1D9AA8958150A9F7CC24DD24C4
:107E500088248394B5E0AB2EA1E19A2EF3E0BF2EE7
:107E6000A2D0813461F49FD0082FAFD0023811F036
:107E7000013811F484E001C083E08DD089C08234E0
:107E800011F484E103C0853419F485E0A6D080C0E4
:107E9000853579F488D0E82EFF2485D0082F10E0AE
:107EA000102F00270E291F29000F111F8ED06801E7
:107EB0006FC0863521F484E090D080E0DECF843638
:107EC00009F040C070D06FD0082F6DD080E0C81688
:107ED00080E7D80618F4F601B7BEE895C0E0D1E017
:107EE00062D089930C17E1F7F0E0CF16F0E7DF06D8
:107EF00018F0F601B7BEE89568D007B600FCFDCFD4
:107F0000A601A0E0B1E02C9130E011968C91119780
:107F100090E0982F8827822B932B1296FA010C0160
:107F200087BEE89511244E5F5F4FF1E0A038BF0790
:107F300051F7F601A7BEE89507B600FCFDCF97BE46
:107F4000E89526C08437B1F42ED02DD0F82E2BD052
:107F50003CD0F601EF2C8F010F5F1F4F84911BD097
:107F6000EA94F801C1F70894C11CD11CFA94CF0C13
:107F7000D11C0EC0853739F428D08EE10CD085E9AC
:107F80000AD08FE07ACF813511F488E018D01DD067
:107F900080E101D065CF982F8091C00085FFFCCF94
:107FA0009093C60008958091C00087FFFCCF809118
:107FB000C00084FD01C0A8958091C6000895E0E648
:107FC000F0E098E1908380830895EDDF803219F02E
:107FD00088E0F5DFFFCF84E1DECF1F93182FE3DFCA
:107FE0001150E9F7F2DF1F91089580E0E8DFEE27F6
:047FF000FF270994CA
:027FFE00040479
:0400000300007E007B
:00000001FF